:100000000C9439000C9456000C9456000C94560035
:100010000C9456000C9456000C9456000C94560008
:100020000C9456000C94E8000C9456000C94560066
:100030000C9456000C9456000C9456000C945600E8
:100040000C9456000C9456000C9456000C945600D8
:100050000C94560005A84CCDB2D44EB93836A9023E
:100060000C50B9918688083CA6AAAA2ABE000000B6
:10007000803F11241FBECFE5D4E0DEBFCDBF10E02E
:10008000A0E6B0E0E8E6F7E002C005900D92A236E7
:10009000B107D9F721E0A2E6B0E001C01D92A43675
:1000A000B207E1F70E94E1000C94B2030C94000047
:1000B000AF92BF92CF92DF92EF92FF920F931F9376
:1000C000CF93DF93C0E0D0E053C000916000109167
:1000D0006100C8010197BC0112F46F5F7F4F5B01A3
:1000E000B594A794BE010D2E000C880B990B0E94AD
:1000F00029022BED3FE049EC50E40E94B5026B0170
:100100007C01B801012E000C880B990B0E9429027A
:100110009B01AC01C701B6010E9486010E94220327
:100120006B017C01B501BB0C880B990B0E94290265
:10013000A70196010E94B5026B017C010F5F1F4F62
:10014000B80112F46F5F7F4F75956795072E000C0D
:10015000880B990B0E942902A70196010E941A019F
:100160008E010C591F4F0E94F801F80160832196FF
:10017000CF3FD10509F00CF4A8CFDF91CF911F91AB
:100180000F91FF90EF90DF90CF90BF90AF900895C8
:1001900012BE13BE8FEF87BB88E088BB80916400DE
:1001A0008CBF83B7886083BF83B7806483BF83B706
:1001B000806283BF83B7816083BF89B7816089BF55
:1001C0000895F8940E9458000E94C8007894FFCFC8
:1001D0001F920F920FB60F9211242F938F939F931C
:1001E000EF93FF93E0916200F0916300EC59FF4FB1
:1001F00080818CBF80916200909163008115914055
:1002000029F4109263001092620009C0809162008C
:100210009091630001969093630080936200FF9138
:10022000EF919F918F912F910F900FBE0F901F9084
:1002300018955058BB27AA270E9431010C947B02C5
:100240000E946D0238F00E94740220F039F49F3F42
:1002500019F426F40C946A020EF4E095E7FB0C9472
:100260006402E92F0E948C0258F3BA1762077307E1
:100270008407950720F079F4A6F50C94AE020EF4ED
:10028000E0950B2EBA2FA02D0B01B90190010C01A6
:10029000CA01A0011124FF27591B99F0593F50F4BE
:1002A000503E68F11A16F040A22F232F342F442716
:1002B000585FF3CF469537952795A795F04053950E
:1002C000C9F77EF41F16BA0B620B730B840BBAF0DE
:1002D0009150A1F0FF0FBB1F661F771F881FC2F749
:1002E0000EC0BA0F621F731F841F48F4879577955D
:1002F0006795B795F7959E3F08F0B0CF9395880F17
:1003000008F09927EE0F9795879508950E949A0116
:100310000C947B020E94740258F00E946D0240F01F
:1003200029F45F3F29F00C94640251110C94AF0240
:100330000C946A020E948C0268F39923B1F355234E
:1003400091F3951B550BBB27AA27621773078407E8
:1003500038F09F5F5F4F220F331F441FAA1FA9F37E
:1003600035D00E2E3AF0E0E832D091505040E6956C
:10037000001CCAF72BD0FE2F29D0660F771F881FCD
:10038000BB1F261737074807AB07B0E809F0BB0BC0
:10039000802DBF01FF2793585F4F3AF09E3F5105D4
:1003A00078F00C9464020C94AF025F3FE4F3983E43
:1003B000D4F3869577956795B795F7959F5FC9F7BD
:1003C000880F911D9695879597F90895E1E0660F3E
:1003D000771F881FBB1F621773078407BA0720F0B7
:1003E000621B730B840BBA0BEE1F88F7E095089520
:1003F0000E94940288F09F5798F0B92F9927B7511F
:10040000B0F0E1F0660F771F881F991F1AF0BA95B8
:10041000C9F714C0B13091F00E94AE02B1E0089566
:100420000C94AE02672F782F8827B85F39F0B93F58
:10043000CCF3869577956795B395D9F73EF490956B
:100440008095709561957F4F8F4F9F4F0895E894E9
:1004500009C097FB3EF490958095709561957F4F0C
:100460008F4F9F4F9923A9F0F92F96E9BB279395BA
:10047000F695879577956795B795F111F8CFFAF4CA
:10048000BB0F11F460FF1BC06F5F7F4F8F4F9F4FFB
:1004900016C0882311F096E911C0772321F09EE859
:1004A000872F762F05C0662371F096E8862F70E0BF
:1004B00060E02AF09A95660F771F881FDAF7880F99
:1004C0009695879597F9089597F99F6780E870E06A
:1004D00060E008959FEF80EC089500240A941616BA
:1004E000170618060906089500240A941216130622
:1004F000140605060895092E0394000C11F48823B0
:1005000052F0BB0F40F4BF2B11F460FF04C06F5FCB
:100510007F4F8F4F9F4F089557FD9058440F551FA1
:1005200059F05F3F71F04795880F97FB991F61F075
:100530009F3F79F087950895121613061406551FEC
:10054000F2CF4695F1DF08C0161617061806991F58
:10055000F1CF86957105610508940895E894BB274D
:1005600066277727CB0197F908950E94C8020C945B
:100570007B020E946D0238F00E94740220F09523E5
:1005800011F00C9464020C946A0211240C94AF02D2
:100590000E948C0270F3959FC1F3950F50E0551F98
:1005A000629FF001729FBB27F00DB11D639FAA27C8
:1005B000F00DB11DAA1F649F6627B00DA11D661F17
:1005C000829F2227B00DA11D621F739FB00DA11D38
:1005D000621F839FA00D611D221F749F3327A00DF2
:1005E000611D231F849F600D211D822F762F6A2F8E
:1005F00011249F5750409AF0F1F088234AF0EE0FF3
:10060000FF1FBB1F661F771F881F91505040A9F71F
:100610009E3F510580F00C9464020C94AF025F3F42
:10062000E4F3983ED4F3869577956795B795F7955B
:10063000E7959F5FC1F7FE2B880F911D96958795D3
:1006400097F908959F930E942C030F9007FCEE5F8B
:100650000C9455030C946A020E949402D8F3E89417
:10066000E0E0BB279F57F0F02AED3FE049EC06C0E1
:10067000EE0FBB0F661F771F881F28F0B23A620784
:100680007307840728F0B25A620B730B840BE3954F
:100690009A9572F7803830F49A95BB0F661F771FD2
:1006A000881FD2F790480C946B03EF93E0FF07C0CC
:1006B000A2EA2AED3FE049EC5FEB0E9431010E9483
:1006C0007B020F90039401FC9058E4E5F0E00C9459
:1006D00077039F3F31F0915020F487957795679588
:1006E000B795880F911D9695879597F908959F93D3
:1006F0008F937F936F93FF93EF939B01AC010E94C5
:10070000B502EF91FF910E948B032F913F914F9182
:100710005F910C94B502DF93CF931F930F93FF92D9
:10072000EF92DF927B018C01689406C0DA2EEF0114
:100730000E94C802FE01E894A5912591359145914A
:100740005591A6F3EF010E943101FE019701A80126
:10075000DA9469F7DF90EF90FF900F911F91CF919E
:08076000DF910895F894FFCF2A
:02076800FF0090
:00000001FF
